:020000040800F2
:100000005864002045010008450300084703000824
:100010004B0300084F0300085303000800000000D2
:10002000000000000000000000000000570300086E
:1000300059030008000000005B03000821190008B4
:100040005F0100085F0100085F0100085F01000810
:100050005F0100085F0100085F0100085F01000800
:100060005F0100085F0100085F0100085F010008F0
:100070005F0100085F0100085F0100085F010008E0
:100080005F0100085F0100085F0100085F010008D0
:100090005F0100085F0100085F0100085F010008C0
:1000A0005F0100085F0100085F0100085F010008B0
:1000B0005F0100085F0100085F0100085F010008A0
:1000C0005F0100085F0100085F0100085F01000890
:1000D0005F0100085F0100085F0100085F01000880
:1000E0005F0100085F0100085F0100085F01000870
:1000F0005F0100085F0100085F0100085F01000860
:100100005F0100085F0100085F0100085F0100084F
:100110005F0100087B1B00085F0100085F01000809
:100120005F0100085F0100085F0100085F0100082F
:10013000DFF80CD001F07AFD00480047791800087C
:10014000586400200648804706480047FEE7FEE75F
:10015000FEE7FEE7FEE7FEE7FEE7FEE7FEE7FEE777
:1001600045020008310100080CB500200190009004
:100170006B48006840F480306949086000BF6848F7
:10018000006800F4003000900198401C0190009835
:1001900018B90198B0F5A06FF1D16148006810F46A
:1001A000003F02D00120009001E000200090009864
:1001B000012842D15B48006840F0100059490860AE
:1001C0000846006820F0030008600846006840F018
:1001D000020008605248406851494860084640683B
:1001E00048600846406840F48060486008464068BF
:1001F00020F47C1048600846406840F4E8104860ED
:100200000846006840F08070086000BF44480068FD
:1002100010F0007FFAD04248406820F003004049C7
:1002200048600846406840F00200486000BF3C4813
:10023000406800F00C000828F9D10CBD10B5FFF79C
:1002400093FF10BD10B53648006840F001003449F6
:10025000086008464068344908403149486008460B
:100260000068324908402E4908600846006820F4BA
:10027000802008600846406820F4FE0048604FF483
:100280001F008860FFF7DAFF4FF000602849086020
:1002900010BD10B5002100200022214B5B6803F047
:1002A0000C0121B1042906D0082928D107E0214BEF
:1002B000214C236027E01F4B1F4C236023E0184B89
:1002C0005B6803F47010164B5B6803F48032022302
:1002D00003EB904022B9194B4343174C23600DE0C8
:1002E0000F4B5B6813F4003F04D0144B4343124C94
:1002F000236003E00F4B43430F4C236003E00D4B9F
:100300000D4C236000BF00BF054B5B68C3F30313B4
:100310000B4CE15C084B1B68CB40074C236010BDC5
:1003200000100240002002400000FFF8FFFFF6FE30
:1003300008ED00E000127A000000002000093D00F6
:1003400004000020704700BFFEE700BFFEE700BFCB
:10035000FEE700BFFEE77047704770473149014331
:10036000314A1160704770B5002100230F22C47814
:100370000CB32D4C246804F4E064C4F5E064210A55
:10038000C1F10403CA40447804FA03F184781440AC
:1003900021430901254C0678A155047804F01F0576
:1003A0000124AC4005786D114FF0E02606EB850581
:1003B000C5F8004109E0047804F01F050124AC40B1
:1003C0001B4D0678761145F8264070BD194A0A4043
:1003D0000243154B1B1F1A60704739B1124A121D98
:1003E00012680243104B1B1D1A6006E00E4A121DD4
:1003F000126882430C4B1B1D1A607047042808D1F9
:100400004FF0E021096941F004014FF0E022116151
:1004100007E04FF0E021096921F004014FF0E022EC
:10042000116170470000FA050CED00E000E400E007
:1004300080E100E080FFFF1F10B50446CA488442F7
:1004400008D10121042000F027FB0021042000F046
:1004500023FB46E0C548844208D10121082000F072
:100460001BFB0021082000F017FB3AE0C048844243
:1004700008D10121102000F00FFB0021102000F016
:100480000BFB2EE0BB48844208D10121202000F064
:1004900003FB0021202000F0FFFA22E0B64884424E
:1004A00008D10121402000F0F7FA0021402000F09F
:1004B000F3FA16E0B148844208D10121802000F00F
:1004C000EBFA0021802000F0E7FA0AE0AC48844211
:1004D00007D10121801500F0DFFA0021A01500F0FE
:1004E000DBFA10BD10B50121084600F0D5FA002155
:1004F000012000F0D1FA10BD2DE9F041024600259F
:100500000026002000230024002791F803C00CF0EF
:100510000F0591F803C01CF0100F03D091F802C032
:100520004CEA050591F800C0BCF1000F31D0146809
:1005300000202BE04FF0010C0CFA00F3B1F800C0E2
:100540000CEA03069E4220D183004FF00F0C0CFAF8
:1005500003F7BC4305FA03FC4CEA040491F803C01A
:10056000BCF1280F06D14FF0010C0CFA00FCC2F8C8
:1005700014C00AE091F803C0BCF1480F05D14FF058
:10058000010C0CFA00FCC2F810C0401C0828D1D3A2
:100590001460B1F800C0BCF1FF0F34DD54680020D6
:1005A0002EE000F1080C4FF0010808FA0CF3B1F846
:1005B00000C00CEA03069E4221D183004FF00F0CCD
:1005C0000CFA03F7BC4305FA03FC4CEA040491F867
:1005D00003C0BCF1280F05D100F1080C08FA0CF893
:1005E000C2F8148091F803C0BCF1480F07D100F1A4
:1005F000080C4FF0010808FA0CF8C2F81080401CF3
:100600000828CED35460BDE8F0814FF6FF71018019
:10061000022181700421C170704702460020936856
:100620000B4201D0012000E000207047014688689D
:1006300080B2704702460020D3680B4201D00120EF
:1006400000E0002070470146C86880B27047016131
:100650007047416170470AB1016100E04161704734
:10066000C16070474FF480320A43826181618261C8
:1006700082698269704702460020424B18684FF633
:100680008073184040EA021008433E4B18607047E0
:100690003D49C8617047F0B50A4600230024002197
:1006A000002500F00046B6F1004F02D1354EF16949
:1006B00001E0344E7168C0F3034583B200F4401684
:1006C000B6F5401F08D121F070612E4E766826F0F5
:1006D00070662C4F7E6012E000F48016B6F5801F25
:1006E00006D1032606FA05F4A14341F0706106E045
:1006F000460D360103FA06F6B14341F0706122B1AE
:10070000460D360103FA06F6314300F00046B6F115
:10071000004F02D11B4EF16101E01A4E7160F0BD35
:1007200030B500228B071C0F0F2303FA04F2154B80
:1007300008338C1053F824309343124C08348D1036
:1007400044F8253023468C1053F824308C07240FAE
:1007500000FA04F423430B4C08348D1044F8253080
:1007600030BD0A490860704700080140000C014094
:10077000001001400014014000180140001C01401D
:10078000002001400000014000002042DC00204227
:10079000DD48006840F00100DB4908600846406819
:1007A000DA490840D849486008460068D8490840F6
:1007B000D54908600846006820F480200860084693
:1007C000406820F4FE0048604FF41F0088607047C6
:1007D000CD49096821F48031CB4A1160114609687E
:1007E00021F480211160B0F5803F03D0B0F5802F57
:1007F0000ED106E0C449096841F48031C24A116053
:1008000007E0C149096841F4A021BF4A116000E036
:1008100000BF00BF704710B5014600220023002032
:100820004A11012A02D1B84C236806E0022A02D1FB
:10083000B54C236A01E0B44C636A01F01F02012445
:1008400094401C4201D0012000E0002010BD38B5CA
:10085000002000900024002500BF3120FFF7DBFFBF
:1008600005460098401C00900098B0F5A06F01D09C
:10087000002DF2D03120FFF7CEFF08B1012400E0B7
:100880000024204638BD014600209F4A106820F011
:10089000F80040EAC100106070479E490860704748
:1008A00002460020984B586820F47C1042EA01036D
:1008B0001843954B58607047964908667047014643
:1008C0000020914A506820F00300084350607047B0
:1008D0008D48406800F00C007047014600208A4AAD
:1008E000506820F0F0000843506070470146002037
:1008F000854A506820F4E060084350607047014624
:100900000020814A506820F4605040EAC1005060E5
:10091000704729B17C4A527A02437B4B5A7204E0F9
:10092000794A527A8243784B5A7270477A49086002
:10093000704701460020744A506820F44040084344
:10094000506070470021754A11706F4A82F820107C
:10095000012802D0042808D103E001216F4A117058
:1009600004E005216D4A117000E000BF00BF704730
:100970006B49086070476449096A0143624A116221
:100980007047674944390860704730B5002100223C
:10099000002400235C4D6D6805F00C0121B1042991
:1009A00005D0082923D105E05E4D056022E05D4DAC
:1009B00005601FE0544D6D6805F47012524D6D686E
:1009C00005F48034022505EB92421CB9564D55437F
:1009D00005600BE04C4D6D6815F4003F03D0524D9F
:1009E0005543056002E04F4D5543056002E04D4D13
:1009F000056000BF00BF444D6D6805F0F0010909B6
:100A00004A4D6B5C0568DD4045603F4D6D6805F4FF
:100A1000E061090A454D6B5C4568DD4085603A4DF3
:100A20006D6805F46051C90A404D6B5C4568DD4056
:100A3000C560354D6D6805F44041890B3C4D6B5CDC
:100A4000C568B5FBF3F5056130BD29B12E4A526981
:100A500002432D4B5A6104E02B4A526982432A4BD0
:100A60005A61704729B1284A92690243264B9A611C
:100A700004E0254A92698243234B9A61704729B169
:100A8000214AD2690243204BDA6104E01E4AD2694E
:100A900082431D4BDA61704729B11B4AD268024379
:100AA000194BDA6004E0184AD2688243164BDA60C8
:100AB000704729B1144A12690243134B1A6104E0CA
:100AC000114A12698243104B1A6170471449403928
:100AD000086070470F49C86470470B49C871704778
:100AE0000948406A40F080700749486270470146F3
:100AF0000020054A92680A4201D0012000E000204F
:100B00007047014988727047001002400000FFF8EA
:100B1000FFFFF6FE00004242D80042422010024091
:100B20008004424200127A0000093D0014000020B7
:100B30002400002010B50446FB48844209D101215D
:100B40008803FFF7A9FF00214FF48040FFF7A4FFBF
:100B500032E0F648844209D101214804FFF7A9FF99
:100B600000214FF40030FFF7A4FF25E0F048844255
:100B700009D101218804FFF79CFF00214FF4802058
:100B8000FFF797FF18E0EB48844209D10121C80420
:100B9000FFF78FFF00214FF40020FFF78AFF0BE0E3
:100BA000E548844208D101210805FFF782FF0021B2
:100BB0004FF48010FFF77DFF10BD2DE9F04786B0A0
:100BC00005460E460024A24600BFA1460027B08974
:100BD00000B100BF2F462C8A4CF6FF700440F0880D
:100BE00004432C82AC894EF6F3100440B08831895E
:100BF0000843718908430443AC81AC8A4FF6FF4037
:100C00000440B0890443AC8201A8FFF7BEFEC64889
:100C1000874202D1DDF810A001E0DDF80CA0A88920
:100C200010F4004F08D00AEBCA0000EB0A1031683C
:100C30004900B0FBF1F807E00AEBCA0000EB0A102C
:100C400031688900B0FBF1F86420B8FBF0F00401D2
:100C50002009642101FB1089A88910F4004F08D0F5
:100C6000322000EBC900B0FBF1F000F007000443B4
:100C700008E0322000EB09106421B0FBF1F000F035
:100C80000F0004432C8106B0BDE8F0874FF41651E5
:100C9000016000218180C18001810C2141810021FE
:100CA0008181704710B502460020108A4FF2FF0381
:100CB00018400B884C8823438C882343CC882343DB
:100CC0001843108210BD0021018041808180C180C5
:100CD000704721B1828942F40052828104E0828906
:100CE0004DF6FF731A4082817047F0B50346002429
:100CF000002600250020A1F510676A3F00D100BF43
:100D00001846C1F3421401F01F06012707FA06F541
:100D1000012C01D10C3004E0022C01D1103000E094
:100D200014301AB107682F43076002E00768AF4329
:100D30000760F0BD1AB1838A0B43838202E0838A85
:100D40008B4383827047028A4FF6F0731A40028207
:100D5000028A0A430282704782894FF2FF731A4067
:100D6000828182890A438281704721B1828942F05F
:100D70000202828104E082894FF6FD731A4082816B
:100D80007047028A4FF6DF731A400282028A0A43D2
:100D90000282704721B1028A42F48042028204E05A
:100DA000028A4BF6FF731A4002827047C1F30802B1
:100DB0008280704701468888C0F3080070478189A7
:100DC00041F0010181817047028BD2B20283028B14
:100DD00042EA012202837047028B02F47F420283BF
:100DE000028B0A430283704721B1828A42F02002BB
:100DF000828204E0828A4FF6DF731A408282704753
:100E000021B1828A42F01002828204E0828A4FF687
:100E1000EF731A408282704721B1828A42F0080241
:100E2000828204E0828A4FF6F7731A40828270470A
:100E300021B1828942F40042828103E08289C2F3B7
:100E40000E028281704721B1828A42F4006282825E
:100E500004E0828A4FF2FF731A4082827047828ACE
:100E60004FF6FB731A408282828A0A43828270475D
:100E700021B1828A42F00202828204E0828A4FF625
:100E8000FD731A408282704702460020B1F5007F50
:100E900000D100BF13880B4201D0012000E00020E8
:100EA000704701F40072B2F5007F00D100BFCA4361
:100EB0000280704770B50246002400230025002000
:100EC000A1F510666A3E00D100BFC1F3421501F0E2
:100ED0001F03012606FA03F3012D02D19689334040
:100EE00006E0022D02D1168A334001E0968A334093
:100EF0000C12012606FA04F41688344013B10CB122
:100F0000012000E0002070BD10B500220023A1F5F3
:100F100010646A3C00D100BF0A1201249440A3B2BD
:100F2000DC43048010BD0000003801400044004054
:100F300000480040004C00400050004010B50446FE
:100F4000FA488168FAA08847072C28D2DFE804F025
:100F500004090E13181D2200F4488168F8A0884780
:100F60001DE0F2488168F9A0884718E0EF488168E1
:100F7000FAA0884713E0ED488168FCA088470EE09E
:100F8000EA488168FCA0884709E0E8488168FEA03B
:100F9000884704E0E5488168FEA0884700BF00BF9D
:100FA00010BD00B5A7B09C21684600F034FE4FF498
:100FB0001C40ADF800004FF48070ADF80200F84816
:100FC00001904FF48070ADF808000120ADF80C00DE
:100FD0000006049005900922F2A117A800F002FE75
:100FE000F3489C2182686846904727B000BD00B551
:100FF000ABB0A82101A800F00EFE4FF42840ADF8D8
:1010000004004FF48070ADF80600E54802904FF4FC
:10101000E060ADF80C00E7480088000AE54909786F
:1010200040EA0120ADF81000E3480088000AE249D8
:10103000097840EA0120ADF81200E0480590E04848
:1010400006904FF04070079008904FF48040ADF844
:1010500024000020ADF82600D548A821826801A808
:1010600090472BB000BD70B590B005462E46B089B4
:10107000000A317B40EA012418210AA800F0CBFDC8
:101080004FF4C050ADF828004FF48070ADF82A003E
:10109000C3480B904FF47060ADF83000200AE1B205
:1010A00040EA0120ADF834004FF0FF300E900F9071
:1010B000BF48182182680AA890472821684600F096
:1010C000AAFD4FF49870ADF8000040F68830ADF8F6
:1010D0000200200AE1B240EA012000F47F0040F45F
:1010E000C810002141EA2020210A41EA042101F42C
:1010F0007F4140EA0120210A41EA042140EA0160DF
:10110000019000200290FF208DF80C0003208DF844
:101110000D004FF40750ADF80E0001208DF81000BF
:1011200000208DF811001520ADF8120001208DF877
:10113000140004208DF8150047F60500ADF81600E0
:1011400005208DF8180006208DF8190000F0D9FB55
:1011500098490844079007208DF8200002208DF858
:10116000210008208DF8220002208DF823000D2098
:101170008DF8240003208DF8250006208DF8260028
:101180008B482821826868469047204610B070BD81
:1011900030B585B0044625461421684600F03BFD75
:1011A0004FF4A050ADF800004FF48070ADF802008D
:1011B0007B4801904FF4C060ADF8080001208DF825
:1011C000100000208DF81100E86803907848142181
:1011D00082686846904705B030BD1FB5002000907A
:1011E0000190029003904FF40050ADF800004011C0
:1011F000ADF802006A4801904FF44070ADF8080065
:1012000001208DF80C006A482021826868469047CA
:101210001FBD7FB5044625464448816869A08847BC
:10122000424881686CA08847287B012804D00228A6
:1012300007D003280FD109E03C48816869A088479E
:1012400009E03A48816869A0884704E03748816826
:101250006AA0884700BF00BF002000900190029064
:1012600003904FF48050ADF800000011ADF802007B
:101270004B4801904FF48060ADF8080001208DF8D4
:101280000C0000208DF80D00494810218268684646
:1012900090477FBD70B504462546288A000A297C00
:1012A00040EA01202882214881685AA088471F48C7
:1012B00081685EA08847A87B012806D0022809D053
:1012C00003280FD0042817D111E0184881685BA0CB
:1012D000884711E0154881685CA08847E87BFFF7E4
:1012E0002DFE09E0114881685DA0884704E00F48A1
:1012F000816860A0884700BF00BF70BD00B5A5B081
:101300009421684600F087FC4FF41440ADF80000CB
:101310004FF48070ADF80200214801904FF4506006
:10132000ADF8080023480088000AAFE02C1D000833
:101330004572726F7220636F6465203A200000006E
:101340006E6F206572726F720D0A00006E6F7420EE
:10135000636F6E6E65637465640D0A00626164207C
:10136000666F726D61740D0A000000006261642096
:1013700076616C75650D0A006E6F207265736F750E
:101380007263650D0A0000006261642069640D0AE1
:1013900000000000504143206572726F720D0A0018
:1013A0001A2B3C4D4D6963726F736F6674000000B9
:1013B000401D000836000020280000200000012CFD
:1013C00005F5E1002D2D53746F7020726571756500
:1013D00073740D0A00000000526561736F6E203A4D
:1013E000200D0A004E6F6E650D0A000053746F7079
:1013F0002D50726F746F636F6C0D0A0053746F70B1
:101400002D4C6F63616C2D53687574646F776E0D2E
:101410000A0000002D2D446973636F6E6E6563745E
:10142000206E6F7469666965640D0A005265737594
:101430006C7420436F6465203A2000006C6F7374F5
:10144000206361727269720D0A0000007365652085
:101450006572726F7220636F64650D0A0000000090
:1014600061646D696E2073687574646F776E0D0AC0
:1014700000000000646973636F6E6E6563742072B0
:101480006571756573740D0A00000000984909784C
:1014900040EA0120ADF80C0004208DF80E00002079
:1014A0008DF80F00ADF810009248942182686846CC
:1014B000904725B000BD9049086800E04068416849
:1014C0000029FBD170472DE9F041064600278B48E3
:1014D00001680068401C894A1060894846541046DB
:1014E0000068032805D3864840788549097840EA92
:1014F0000127002F3FD08148006887423BD17E48BA
:101500000068C8B9082000F0DBFB7B49086008468A
:1015100000680021016041607848006800F0D0FB5D
:1015200075490968086074490968086873490A6858
:10153000734900F057FB16E0082000F0C1FB044699
:10154000002020606060082000F0BAFB20600020CE
:1015500060606A4920680A68694900F043FBFFF748
:10156000AAFF05466C600020644908604FF40071D2
:10157000634800F050FBBDE8F08138B500200090D2
:101580005D48006800287CD05B48006845685A4880
:1015900000680468607A217A40EA01200090BDF872
:1015A000000010285ED2DFE800F05D080D14181D61
:1015B000252A2F393E43484F55585248816852A03A
:1015C000884759E04F48816857A08847FFF70FFDCB
:1015D00052E02046FFF71DFE4EE04A48816859A0C0
:1015E000884749E0474881685DA088472046FFF763
:1015F000CFFD41E0434881685EA088473CE0414818
:10160000816860A0884737E03E48816864A08847C9
:101610002046FFF728FD684908802DE03948816899
:1016200066A0884728E0374881686BA0884723E098
:10163000344881686EA088471EE03248816873A0F4
:101640008847FFF75BFE17E02046FFF723FEFFF712
:10165000C4FD11E0FFF752FE0EE02A48816871A038
:10166000884709E02748816873A0884725480221F8
:10167000C2686846904700BF00BF1F4909680868F4
:1016800000E008E000F0F4FA1B48006800F0F0FA0F
:10169000194805602AE06E480078E0B96D48006896
:1016A00010F0800F17D10120694908706A4800883E
:1016B000401C6949088000F083FA4FF6FF7190FBE7
:1016C000F1F201FB12000A4908800E48816863A00C
:1016D0008847FFF766FC5E48007838B15D480068CF
:1016E00010F0800F02D000205949087038BD00006A
:1016F00036000020401D0008300000202C00002093
:10170000580000202C1D00082D2D73746172742068
:10171000636F6E6E656374696F6E20726571756557
:1017200073740D0A000000002D2D73746172742013
:10173000636F6E6E656374696F6E207265706C792D
:101740000D0A00002D2D207265706C792073746F66
:101750007020636F6E6E656374696F6E0D0A0000B2
:101760002D2D6563686F20726571756573740D0A40
:10177000000000002D2D6563686F207265706C7924
:101780000D0A00002D2D6F7574676F696E672063F9
:10179000616C6C20726571756573740D0A000000D0
:1017A0002D2D6F7574676F696E672063616C6C2097
:1017B0007265706C790D0A00380000202D2D696E5D
:1017C000636F6D696E672063616C6C207265717503
:1017D0006573740D0A0000002D2D696E636F6D69CD
:1017E0006E672063616C6C207265706C790D0A0005
:1017F0002D2D696E636F6D696E672063616C6C205F
:10180000636F6E6E65637465640D0A002D2D6361F0
:101810006C6C20636C6561722072657175657374A0
:101820000D0A00002D2D736574206C696E6B2069A4
:101830006E666F0D0A000000756E6B6E6F776E201E
:101840006D65737361676520636F6465203A20007E
:1018500034000020080C01402800002072657175DA
:1018600065737420737461727420636F6E6E656348
:1018700074696F6E0D0A000008B50C49086880474E
:101880000B490868804700BF0A48006810F0400F05
:10189000FAD10AE00648C1686846884718B19DF841
:1018A0000000FFF710FEFFF768FEF3E72C1D0008AD
:1018B000401D0008080C014030B51C49B1F1807F83
:1018C00000D31DE021F07F40401E4FF0E022506128
:1018D00050170F22002807DA13071D0E144B00F0D3
:1018E0000F04241F1D5503E013071C0E114B1C543D
:1018F00000BF00204FF0E02290610720106100BF80
:1019000030BD0D480068704700B50146FFF7F9FF8C
:1019100002468A4202D2501A401E00BD501AFCE70D
:1019200005480068401C04490860704740190100E0
:1019300018ED00E000E400E03C00002000B585B0B8
:10194000012144F20400FFF78DF84FF40070ADF868
:10195000100018208DF8130001208DF8120004A942
:101960003A48FEF7C9FD4FF48060ADF8100004203E
:101970008DF8130001208DF8120004A93348FEF7FA
:10198000BBFD4FF4E13000900020ADF80400ADF84D
:101990000600ADF808000820ADF80A000020ADF8F8
:1019A0000C0069462A48FFF708F901212848FFF78B
:1019B00090F905B000BD2649091D088000BF2449E3
:1019C000098811F0800FFAD070470AE010F8011B67
:1019D0001F4A121D118000BF1D49098811F0800F98
:1019E000FAD001780029F1D170470AE010F8012BF4
:1019F000174B1B1D1A8000BF154A128812F0800F6A
:101A0000FAD00A00A1F10101F0D1704730B50446C7
:101A10000A46234614E019780E4D2D6805EB111186
:101A20000878FFF7C8FF197801F00F01094D2D68FC
:101A3000685CFFF7C0FF12B12020FFF7BCFF5B1C02
:101A40001000A2F10102E6D130BD00000008014003
:101A5000003801404000002000B587B00121080592
:101A6000FFF70DF801213920FEF7FCFF4FF48050FD
:101A7000ADF8180018208DF81B0003208DF81A000F
:101A800006A94848FEF738FD0420ADF818008DF887
:101A90001B0003208DF81A0006A94348FEF72CFD11
:101AA000C020ADF8180048208DF81B0006A93F485B
:101AB000FEF722FD4FF4E13002900020ADF80C005B
:101AC000ADF80E00ADF810000C20ADF812000020AB
:101AD000ADF8140002A93648FFF76FF80121344829
:101AE000FFF7F7F8012240F225513148FFF7FDF8E2
:101AF00035208DF8040000208DF805008DF80600D3
:101B000001208DF8070001A8FEF72DFC07B000BDED
:101B10002749888000BF2649098811F0800FFAD034
:101B2000704709E010F8012B214B9A8000BF204A32
:101B3000128812F0800FFAD00A00A1F10101F1D150
:101B4000704701461B4800681B4A1268904201D149
:101B500000207047184802680068401C164B186047
:101B60001648805C087018460068B0F5007F02D106
:101B700000201A4610600120EBE70D498988C8B2A1
:101B80000C490A680968491C0A4B19600B498854BA
:101B900019460968B1F5007F02D100211A4611608B
:101BA000704700000010014000140140000C01408B
:101BB000005000404400002048000020580200204F
:101BC0000649074A0868504343F239021044086046
:101BD0004008704701490860704700004C00002031
:101BE0006D4EC64140EA01039B0703D009E008C9D6
:101BF000121F08C0042AFAD203E011F8013B00F8D2
:101C0000013B521EF9D27047D2B201E000F8012B1D
:101C1000491EFBD270470022F6E710B513460A466C
:101C200004461946FFF7F0FF204610BD064C074D4D
:101C300006E0E06840F0010394E80700984710349C
:101C4000AC42F6D3FEF778FA641D0008841D000844
:101C500002E008C8121F08C1002AFAD17047704775
:101C6000002001E001C1121F002AFBD170470000D3
:101C700010B5002821D0114B001F0022196803E085
:101C8000814203D80A4649680029F9D152B1136844
:101C9000841A9C4204D1006818441060104602E087
:101CA000506000E0186039B102680B1A934203D10A
:101CB0000B681A4402604968416010BD5000002062
:101CC000F0B50B30154D20F007010024144A0FE049
:101CD00003688B420BD38B4205D95E1A43184768C1
:101CE000C3E9006700E04368136002C004E0021D1E
:101CF00010680028ECD12046002802D1286808B1DD
:101D00000020F0BD064A07481060074A121A22F068
:101D10000702C0E9002401202860D7E75400002012
:101D2000500000205C040020584400203D190008A9
:101D3000B7190008CB1900080D1A0008EB190008A4
:101D4000591A0008111B0008231B0008431B000838
:101D500030313233343536373839414243444546E1
:101D600000000000841D0008000000205800000052
:101D7000501C0008DC1D0008580000200064000012
:101D8000601C000800A24A040000000000000000DF
:101D90000102030406070809000000000102030411
:101DA00001020304060708090204060801000000F6
:101DB0000000000000000000000000000000000023
:101DC00000000000501D000800000000000000009E
:0C1DD00000000000000000000000000007
:0400000508000131BD
:00000001FF
